:100000000C945E000C9486000C9486000C94860080
:100010000C9486000C9486000C9486000C94860048
:100020000C9486000C9486000C9486000C94860038
:100030000C9486000C9486000C9486000C94860028
:100040000C94C1020C9486000C9486000C948600DB
:100050000C9486000C9486000C9486000C94860008
:100060000C9486000C9486000000000024002700F9
:100070002A0000000000250028002B0004040404CE
:100080000404040402020202020203030303030342
:10009000010204081020408001020408102001021F
:1000A00004081020000000080002010000030407FB
:1000B0000000000000000000B703130411241FBE5D
:1000C000CFEFD8E0DEBFCDBF21E0A6E0B1E001C0B8
:1000D0001D92A832B207E1F711E0A0E0B1E0EEEE28
:1000E000FAE002C005900D92A630B107D9F710E0F2
:1000F000CDE5D0E004C02197FE010E943704CC3545
:10010000D107C9F70E940B030C946A050C940000F8
:1001100090E0FC01EC55FF4F2491FC01E057FF4FAC
:100120003491FC01E458FF4FE491EE23B9F122230E
:1001300039F1233091F038F42130A9F0223001F563
:1001400084B58F7D12C0273091F02830A1F0243083
:10015000B9F4809180008F7D03C0809180008F77FB
:10016000809380000DC084B58F7784BD09C08091D5
:10017000B0008F7703C08091B0008F7D8093B00076
:10018000F0E0EE0FFF1FEE58FF4FA591B4918FB72F
:10019000F894EC9130953E233C938FBF08958F9255
:1001A0009F92AF92BF92CF92DF92EF92FF924B015C
:1001B000AA24BB24E82DC52ED62EE72EFF24FC2D25
:1001C000342F20911601222361F0829E40011124D8
:1001D000E92DC29E60011124FD2D429FD001112402
:1001E0003B2FF0901C01E0901901A0911701B091F4
:1001F0001801FE1008C0AC01440F551F840F951F55
:100200008A0F9B1F14C0880F991F880F991F8A0F90
:100210009B1F472F552766277727DC01AF0DB11DA0
:10022000222321F0429FA0011124452F4C932091BD
:100230001901DC01A20FB11DEC9320911A01DC0120
:10024000A20FB11DFC9320911B01FC01E20FF11DD7
:100250003083FF90EF90DF90CF90BF90AF909F9052
:100260008F900895CF93DF9390E0FC01E057FF4F0C
:100270002491FC01E458FF4F8491882361F190E0C0
:10028000880F991FFC01E859FF4FC591D491FC01DB
:10029000EE58FF4FA591B491611109C09FB7F89432
:1002A0008881209582238883EC912E230BC06230B5
:1002B00061F49FB7F8943881822F809583238883D7
:1002C000EC912E2B2C939FBF06C08FB7F894E8813A
:1002D0002E2B28838FBFDF91CF9108953FB7F894DD
:1002E00080910B0190910C01A0910D01B0910E0134
:1002F00026B5A89B05C02F3F19F00196A11DB11D81
:100300003FBFBA2FA92F982F8827820F911DA11DBB
:10031000B11DBC01CD0142E0660F771F881F991FF8
:100320004A95D1F708950F931F93CF93DF93CDB7DD
:10033000DEB729970FB6F894DEBF0FBECDBF809110
:10034000170190911801892B09F4A1C00E946E0138
:1003500000911D0110911E0120911F01309120017B
:10036000DC01CB01801B910BA20BB30BC297A10543
:10037000B10560F3F89480911301909114019A8370
:100380008983E0911701F0911801DF0111968081B6
:10039000898790910F01E0912101F09122018091D4
:1003A0002301992309F42EC09081982B988790817E
:1003B000809589238F838F818C8388E08B835885F8
:1003C0006F8149853B812C8189819A81508347FDCA
:1003D000252F3A952083262F39F0441F00C00000B6
:1003E0006083000000C0F2CF38E04D9160830000D0
:1003F000019761F7F0932201E093210149873B8344
:100400002C8338C09081982B988790818095892380
:100410008F838F818E8388E08D8358856F81498596
:100420003D812E8189819A81508347FD252F00C00F
:1004300000C0208300C000C000C000C000C06083B6
:100440000000262F3A9541F0441F000000C000C074
:1004500000C000C000C0E8CF38E04D9100C060830C
:1004600000C0019709F7F0932201E0932101498729
:100470003D832E839A83898378940E946E016093D2
:100480001D0170931E0180931F01909320012996F6
:100490000FB6F894DEBF0FBECDBFDF91CF911F9195
:1004A0000F9108958F929F92AF92BF92CF92DF9259
:1004B000EF92FF926B017C010E946E014B015C0187
:1004C000C114D104E104F104F1F00E946E01DC01D9
:1004D000CB0188199909AA09BB09883E9340A10557
:1004E000B10570F321E0C21AD108E108F10888EEE5
:1004F000880E83E0981EA11CB11CC114D104E10434
:10050000F10419F7DDCFFF90EF90DF90CF90BF900F
:10051000AF909F908F9008950F931F93809585358E
:1005200060F4682F660F860F282F209590E0A0E0DA
:10053000B0E0BC01CD01822B21C08A3A80F4855500
:10054000982F990F980F692F6095462F50E060E023
:1005500070E08A019B01192BC901B8010FC08A5AAA
:10056000682F660F860F282F209590E0A0E0B0E05E
:10057000DC0199278827BC01CD01722B1F910F91B7
:1005800008951F920F920FB60F9211242F933F934D
:100590008F939F93AF93BF93809107019091080130
:1005A000A0910901B0910A013091060123E0230FC7
:1005B0002D3720F40196A11DB11D05C026E8230F9B
:1005C0000296A11DB11D209306018093070190930F
:1005D0000801A0930901B0930A0180910B01909149
:1005E0000C01A0910D01B0910E010196A11DB11D4C
:1005F00080930B0190930C01A0930D01B0930E0119
:10060000BF91AF919F918F913F912F910F900FBE0E
:100610000F901F901895789484B5826084BD84B53E
:10062000816084BD85B5826085BD85B5816085BDED
:1006300080916E00816080936E00109281008091A5
:10064000810082608093810080918100816080932D
:100650008100809180008160809380008091B10052
:1006600084608093B1008091B00081608093B0007D
:1006700080917A00846080937A0080917A00826011
:1006800080937A0080917A00816080937A008091D3
:100690007A00806880937A001092C10080911501E1
:1006A00087FD07C061E00E943201809115010E9420
:1006B000880081E0809310010E94930180E0C82EA1
:1006C00080E0D82E00E010E0C0E0D0E08091110181
:1006D00090911201C817D90758F48C2F800F0E94EF
:1006E0008C02AB01BC01CE010E94CF002196EECF5F
:1006F0000E94930162E370E080E090E00E94520269
:100700000F5F1F4F011581E01807F1F600E010E0C0
:10071000E12CF12CC0E0D0E0609111017091120148
:10072000C617D70778F4C7010E942304862F800FCD
:100730000E948C02AB01BC01CE010E94CF00219629
:10074000F394EACF0E94930162E370E080E090E0CE
:100750000E9452020F5F1F4F011585E01807C1F676
:10076000C114D10409F4AECF0E940000ABCF1092A7
:1007700010011092160110921D0110921E0110928C
:100780001F011092200181E080931C0180931901C8
:1007900010921A0192E090931B0180930F0180E365
:1007A00090E090931401809313010E943D04909374
:1007B000180180931701009761F020E3FC0111926A
:1007C0002A95E9F780E190E090931201809311015E
:1007D00008C010921401109213011092120110928D
:1007E00011018AE08093150180911001882339F06E
:1007F00061E08AE00E9432018AE00E948800E6E817
:10080000F0E0E491F0E0EE0FFF1FEE58FF4F85910E
:1008100094919093220180932101EAE9F0E0E49120
:10082000E09323010895809117019091180100979A
:1008300011F00E94D2048091150187FD03C060E091
:100840000C9432010895AA1BBB1B51E107C0AA1FDB
:10085000BB1FA617B70710F0A61BB70B881F991F61
:100860005A95A9F780959095BC01CD010895EE0F9A
:10087000FF1F0590F491E02D0994CF93DF93823010
:10088000910510F482E090E0E0912601F0912701BB
:1008900020E030E0C0E0D0E0309711F1408151819C
:1008A00048175907C0F04817590761F482819381AE
:1008B000209719F09B838A832BC090932701809304
:1008C000260126C02115310519F04217530718F4E7
:1008D0009A01BE01DF01EF010280F381E02DDCCF40
:1008E0002115310509F1281B390B2430310590F40D
:1008F00012968D919C9113976115710521F0FB0162
:100900009383828304C09093270180932601FD0185
:10091000329644C0FD01E20FF31F81939193225060
:1009200031092D933C933AC0209124013091250147
:10093000232B41F4209102013091030130932501D2
:1009400020932401209100013091010121153105EE
:1009500041F42DB73EB74091040150910501241B8D
:10096000350BE0912401F0912501E217F307A0F483
:100970002E1B3F0B2817390778F0AC014E5F5F4FF5
:100980002417350748F04E0F5F1F50932501409301
:1009900024018193919302C0E0E0F0E0CF01DF9168
:1009A000CF9108950F931F93CF93DF93009709F48E
:1009B0008CC0FC01329713821282009126011091A3
:1009C00027010115110581F420813181820F931FC8
:1009D00020912401309125012817390779F5F093EA
:1009E0002501E093240171C0D80140E050E0AE172A
:1009F000BF0750F412962D913C911397AD0121152C
:100A0000310509F1D901F3CF9D01DA013383228346
:100A100060817181860F971F8217930769F4EC013B
:100A200028813981260F371F2E5F3F4F3183208366
:100A30008A819B8193838283452B29F4F09327013C
:100A4000E093260142C01396FC93EE931297ED01BA
:100A5000499159919E01240F351FE217F30771F454
:100A600080819181840F951F029611969C938E939D
:100A70008281938113969C938E931297E0E0F0E02D
:100A8000D80112968D919C911397009719F0F80157
:100A90008C01F6CF8D919C9198012E5F3F4F820F74
:100AA000931F20912401309125012817390769F4FB
:100AB000309729F4109227011092260102C0138268
:100AC00012821093250100932401DF91CF911F9191
:100AD0000F91089510E0CDE5D0E004C0FE010E9422
:0E0AE00037042196CE35D107C9F7F894FFCF21
:060AEE0000002801800059
:107800000C94343C0C94513C0C94513C0C94513CE1
:107810000C94513C0C94513C0C94513C0C94513CB4
:107820000C94513C0C94513C0C94513C0C94513CA4
:107830000C94513C0C94513C0C94513C0C94513C94
:107840000C94513C0C94513C0C94513C0C94513C84
:107850000C94513C0C94513C0C94513C0C94513C74
:107860000C94513C0C94513C11241FBECFEFD8E036
:10787000DEBFCDBF11E0A0E0B1E0ECE9FFE702C060
:1078800005900D92A230B107D9F712E0A2E0B1E065
:1078900001C01D92AD30B107E1F70E942D3D0C945F
:1078A000CC3F0C94003C982F959595959595959582
:1078B000905D8F708A307CF0282F295A8091C0000B
:1078C00085FFFCCF9093C6008091C00085FFFCCF60
:1078D0002093C6000895282F205DF0CF982F809127
:1078E000C00085FFFCCF9093C6000895EF92FF92F1
:1078F0000F931F93EE24FF2487018091C00087FD22
:1079000017C00894E11CF11C011D111D81E4E8164B
:1079100082E4F8068FE0080780E0180770F3E09132
:107920000401F091050109958091C00087FFE9CF1E
:107930008091C6001F910F91FF90EF9008950E94D3
:10794000763C982F8091C00085FFFCCF9093C600B5
:1079500091362CF490330CF09053892F089597555D
:10796000892F08951F930E949F3C182F0E949F3CCF
:107970001295107F810F1F9108951F93182F882350
:1079800021F00E94763C1150E1F71F9108951F935A
:10799000182F0E94763C803249F0809103018F5F5E
:1079A000809303018530C1F01F9108958091C0003C
:1079B00085FFFCCF84E18093C6008091C00085FFE5
:1079C000FCCF1093C6008091C00085FFFCCF80E102
:1079D0008093C6001F910895E0910401F091050184
:1079E00009951F9108950E94763C803241F0809164
:1079F00003018F5F80930301853081F008958091AA
:107A0000C00085FFFCCF84E18093C6008091C00058
:107A100085FFFCCF80E18093C6000895E0910401CA
:107A2000F09105010995089540E951E08823A1F0FE
:107A30002D9A28EE33E0FA013197F1F721503040CA
:107A4000D1F72D9828EE33E0FA013197F1F7215064
:107A50003040D1F7815061F708953F924F925F9285
:107A60006F927F928F929F92AF92BF92CF92DF924E
:107A7000EF92FF920F931F93CF93DF93000080E16B
:107A80008093C4001092C50088E18093C10086E015
:107A90008093C2005098589A259A81E00E94143D24
:107AA00024E1F22E9EE1E92E85E9D82E0FE0C02ECA
:107AB00010E1B12EAA24A394B1E49B2EA6E58A2E50
:107AC000F2E57F2EE0E26E2E79E4572E63E5462E36
:107AD00050E5352E0E94763C8033B1F18133B9F107
:107AE000803409F46FC0813409F476C0823409F41B
:107AF00085C0853409F488C0803531F1823521F1A3
:107B0000813511F1853509F485C0863509F48DC0BC
:107B1000843609F496C0843709F403C1853709F423
:107B200072C1863709F466C0809103018F5F80932C
:107B30000301853079F6E0910401F0910501099582
:107B40000E94763C803351F60E94F33CC3CF0E94E2
:107B5000763C803249F78091C00085FFFCCFF092DF
:107B6000C6008091C00085FFFCCF9092C600809136
:107B7000C00085FFFCCF8092C6008091C00085FFC9
:107B8000FCCF7092C6008091C00085FFFCCF609250
:107B9000C6008091C00085FFFCCF5092C600809146
:107BA000C00085FFFCCF4092C6008091C00085FFD9
:107BB000FCCF3092C6008091C00085FFFCCFB09210
:107BC000C60088CF0E94763C863808F4BDCF0E945C
:107BD000763C0E94F33C7ECF0E94763C803809F4CC
:107BE0009CC0813809F40BC1823809F43CC1883942
:107BF00009F48FC080E00E94C73C6CCF84E10E94F2
:107C0000BD3C0E94F33C66CF85E00E94BD3C0E94D3
:107C1000F33C60CF0E94763C809306010E94763C44
:107C2000809307010E94F33C55CF0E94763C80333D
:107C300009F41DC183E00E94BD3C80E00E94C73C66
:107C400049CF0E94763C809309020E94763C809343
:107C5000080280910C028E7F80930C020E94763C79
:107C6000853409F415C18091080290910902892B8D
:107C700089F000E010E00E94763CF801E85FFE4FDA
:107C800080830F5F1F4F80910802909109020817AF
:107C9000190788F30E94763C803209F045CF809125
:107CA0000C0280FF01C16091060170910701660F0F
:107CB000771F7093070160930601A0910802B091AD
:107CC00009021097C9F0E8E0F1E09B01AD014E0F09
:107CD0005F1FF999FECF32BD21BD819180BDFA9A17
:107CE000F99A2F5F3F4FE417F50799F76A0F7B1F4B
:107CF00070930701609306018091C00085FFFCCF5F
:107D0000F092C6008091C00085FFFCCFB092C60003
:107D1000E1CE83E00E94C73CDDCE82E00E94C73CFA
:107D2000D9CE0E94763C809309020E94763C8093D3
:107D300008028091060190910701880F991F909386
:107D40000701809306010E94763C853409F4A6C0A1
:107D500080910C028E7F80930C020E94763C8032D0
:107D600009F0B8CE8091C00085FFFCCFF092C6002C
:107D7000609108027091090261157105B9F140E046
:107D800050E080910C02A82FA170B82FB27011C0E2
:107D9000BB2309F45CC0E0910601F0910701319624
:107DA000F0930701E09306014F5F5F4F46175707B7
:107DB000E8F4AA2369F3F999FECF209106013091E6
:107DC000070132BD21BDF89A90B58091C00085FFB2
:107DD000FCCF9093C6002F5F3F4F30930701209355
:107DE00006014F5F5F4F4617570718F38091C00099
:107DF00085FDE5CE8091C00085FFF8CFE0CE81E023
:107E00000E94C73C67CE0E94763C803209F08CCE3F
:107E10008091C00085FFFCCFF092C6008091C00029
:107E200085FFFCCFE092C6008091C00085FFFCCFAB
:107E3000D092C6008091C00085FFFCCFC092C600E2
:107E40008091C00085FFFCCFB092C60043CEE09188
:107E50000601F091070194918091C00085FFFCCF4D
:107E60009093C6009CCF80E10E94C73C33CE0E9415
:107E7000763C0E94763C182F0E94763C112309F430
:107E800083C0113009F484C08FE00E94C73C22CE29
:107E900080910C02816080930C02E5CE80910C02EF
:107EA000816080930C0259CF809107018823880F4D
:107EB000880B8A2180930B02809106019091070123
:107EC000880F991F90930701809306018091080203
:107ED00080FF09C080910802909109020196909359
:107EE000090280930802F894F999FECF1127E091D6
:107EF0000601F0910701C8E0D1E08091080290915D
:107F00000902103091F40091570001700130D9F34B
:107F100003E000935700E89500915700017001308D
:107F2000D9F301E100935700E89509901990009169
:107F3000570001700130D9F301E000935700E89534
:107F40001395103498F011270091570001700130FB
:107F5000D9F305E000935700E895009157000170B0
:107F60000130D9F301E100935700E895329602976A
:107F700009F0C7CF103011F00296E5CF112480919F
:107F8000C00085FFB9CEBCCE8EE10E94C73CA2CD19
:0C7F900085E90E94C73C9ECDF894FFCF0D
:027F9C00800063
:040000030000780081
:00000001FF